{
  "_format": "hh-sol-artifact-1",
  "contractName": "PumpPortal",
  "sourceName": "contracts/PumpPortal.sol",
  "abi": [
    {
      "inputs": [],
      "stateMutability": "payable",
      "type": "constructor"
    },
    {
      "anonymous": false,
      "inputs": [
        {
          "indexed": true,
          "internalType": "address",
          "name": "from",
          "type": "address"
        },
        {
          "indexed": false,
          "internalType": "uint256",
          "name": "timestamp",
          "type": "uint256"
        },
        {
          "indexed": false,
          "internalType": "string",
          "name": "message",
          "type": "string"
        }
      ],
      "name": "NewPump",
      "type": "event"
    },
    {
      "inputs": [],
      "name": "getAllPumps",
      "outputs": [
        {
          "components": [
            {
              "internalType": "address",
              "name": "pumper",
              "type": "address"
            },
            {
              "internalType": "string",
              "name": "message",
              "type": "string"
            },
            {
              "internalType": "uint256",
              "name": "timestamp",
              "type": "uint256"
            }
          ],
          "internalType": "struct PumpPortal.Pump[]",
          "name": "",
          "type": "tuple[]"
        }
      ],
      "stateMutability": "view",
      "type": "function"
    },
    {
      "inputs": [],
      "name": "getTotalPumps",
      "outputs": [
        {
          "internalType": "uint256",
          "name": "",
          "type": "uint256"
        }
      ],
      "stateMutability": "view",
      "type": "function"
    },
    {
      "inputs": [
        {
          "internalType": "address",
          "name": "",
          "type": "address"
        }
      ],
      "name": "lastGivenPump",
      "outputs": [
        {
          "internalType": "uint256",
          "name": "",
          "type": "uint256"
        }
      ],
      "stateMutability": "view",
      "type": "function"
    },
    {
      "inputs": [
        {
          "internalType": "string",
          "name": "_message",
          "type": "string"
        }
      ],
      "name": "pump",
      "outputs": [],
      "stateMutability": "nonpayable",
      "type": "function"
    }
  ],
  "bytecode": "0x608060405262000033604051806060016040528060258152602001620013bc602591396200005b60201b620006381760201c565b60644442620000439190620001a8565b6200004f919062000245565b600181905550620002ec565b620000fb8160405160240162000072919062000168565b6040516020818303038152906040527f41304fac000000000000000000000000000000000000000000000000000000007bffffffffffffffffffffffffffffffffffffffffffffffffffffffff19166020820180517bffffffffffffffffffffffffffffffffffffffffffffffffffffffff8381831617835250505050620000fe60201b60201c565b50565b60008151905060006a636f6e736f6c652e6c6f679050602083016000808483855afa5050505050565b600062000134826200018c565b62000140818562000197565b9350620001528185602086016200020f565b6200015d81620002db565b840191505092915050565b6000602082019050818103600083015262000184818462000127565b905092915050565b600081519050919050565b600082825260208201905092915050565b6000620001b58262000205565b9150620001c28362000205565b9250827fffffffffffffffffffffffffffffffffffffffffffffffffffffffffffffffff03821115620001fa57620001f96200027d565b5b828201905092915050565b6000819050919050565b60005b838110156200022f57808201518184015260208101905062000212565b838111156200023f576000848401525b50505050565b6000620002528262000205565b91506200025f8362000205565b925082620002725762000271620002ac565b5b828206905092915050565b7f4e487b7100000000000000000000000000000000000000000000000000000000600052601160045260246000fd5b7f4e487b7100000000000000000000000000000000000000000000000000000000600052601260045260246000fd5b6000601f19601f8301169050919050565b6110c080620002fc6000396000f3fe608060405234801561001057600080fd5b506004361061004c5760003560e01c806341864ef51461005157806343a387141461006f578063606556dd1461009f578063b208e0ac146100bd575b600080fd5b6100596100d9565b6040516100669190610c7e565b60405180910390f35b61008960048036038101906100849190610952565b61022a565b6040516100969190610d82565b60405180910390f35b6100a7610242565b6040516100b49190610d82565b60405180910390f35b6100d760048036038101906100d2919061097b565b61028d565b005b60606002805480602002602001604051908101604052809291908181526020016000905b8282101561022157838290600052602060002090600302016040518060600160405290816000820160009054906101000a900473ffffffffffffffffffffffffffffffffffffffff1673ffffffffffffffffffffffffffffffffffffffff1673ffffffffffffffffffffffffffffffffffffffff16815260200160018201805461018690610f43565b80601f01602080910402602001604051908101604052809291908181526020018280546101b290610f43565b80156101ff5780601f106101d4576101008083540402835291602001916101ff565b820191906000526020600020905b8154815290600101906020018083116101e257829003601f168201915b50505050508152602001600282015481525050815260200190600101906100fd565b50505050905090565b60036020528060005260406000206000915090505481565b60006102856040518060400160405280601781526020017f5765206861766520256420746f74616c2070756d7073210000000000000000008152506000546106d1565b600054905090565b42610384600360003373ffffffffffffffffffffffffffffffffffffffff1673ffffffffffffffffffffffffffffffffffffffff168152602001908152602001600020546102db9190610e6f565b1061031b576040517f08c379a000000000000000000000000000000000000000000000000000000000815260040161031290610d62565b60405180910390fd5b42600360003373ffffffffffffffffffffffffffffffffffffffff1673ffffffffffffffffffffffffffffffffffffffff1681526020019081526020016000208190555060016000808282546103719190610e6f565b925050819055506103b76040518060400160405280600e81526020017f25732068617320612070756d70210000000000000000000000000000000000008152503361076d565b600260405180606001604052803373ffffffffffffffffffffffffffffffffffffffff16815260200183815260200142815250908060018154018082558091505060019003906000526020600020906003020160009091909190915060008201518160000160006101000a81548173ffffffffffffffffffffffffffffffffffffffff021916908373ffffffffffffffffffffffffffffffffffffffff1602179055506020820151816001019080519060200190610476929190610832565b50604082015181600201555050606460015442446104949190610e6f565b61049e9190610e6f565b6104a89190610f75565b6001819055506104ef6040518060400160405280601681526020017f52616e646f6d20232067656e6572617465643a202564000000000000000000008152506001546106d1565b603260015411610635576105386040518060400160405280600781526020017f257320776f6e21000000000000000000000000000000000000000000000000008152503361076d565b6000655af3107a4000905047811115610586576040517f08c379a000000000000000000000000000000000000000000000000000000000815260040161057d90610d22565b60405180910390fd5b60003373ffffffffffffffffffffffffffffffffffffffff16826040516105ac90610c69565b60006040518083038185875af1925050503d80600081146105e9576040519150601f19603f3d011682016040523d82523d6000602084013e6105ee565b606091505b5050905080610632576040517f08c379a000000000000000000000000000000000000000000000000000000000815260040161062990610d42565b60405180910390fd5b50505b50565b6106ce8160405160240161064c9190610ca0565b6040516020818303038152906040527f41304fac000000000000000000000000000000000000000000000000000000007bffffffffffffffffffffffffffffffffffffffffffffffffffffffff19166020820180517bffffffffffffffffffffffffffffffffffffffffffffffffffffffff8381831617835250505050610809565b50565b61076982826040516024016106e7929190610cf2565b6040516020818303038152906040527f9710a9d0000000000000000000000000000000000000000000000000000000007bffffffffffffffffffffffffffffffffffffffffffffffffffffffff19166020820180517bffffffffffffffffffffffffffffffffffffffffffffffffffffffff8381831617835250505050610809565b5050565b6108058282604051602401610783929190610cc2565b6040516020818303038152906040527f319af333000000000000000000000000000000000000000000000000000000007bffffffffffffffffffffffffffffffffffffffffffffffffffffffff19166020820180517bffffffffffffffffffffffffffffffffffffffffffffffffffffffff8381831617835250505050610809565b5050565b60008151905060006a636f6e736f6c652e6c6f679050602083016000808483855afa5050505050565b82805461083e90610f43565b90600052602060002090601f01602090048101928261086057600085556108a7565b82601f1061087957805160ff19168380011785556108a7565b828001600101855582156108a7579182015b828111156108a657825182559160200191906001019061088b565b5b5090506108b491906108b8565b5090565b5b808211156108d15760008160009055506001016108b9565b5090565b60006108e86108e384610dce565b610d9d565b90508281526020810184848401111561090057600080fd5b61090b848285610f01565b509392505050565b60008135905061092281611073565b92915050565b600082601f83011261093957600080fd5b81356109498482602086016108d5565b91505092915050565b60006020828403121561096457600080fd5b600061097284828501610913565b91505092915050565b60006020828403121561098d57600080fd5b600082013567ffffffffffffffff8111156109a757600080fd5b6109b384828501610928565b91505092915050565b60006109c88383610bfb565b905092915050565b6109d981610ec5565b82525050565b6109e881610ec5565b82525050565b60006109f982610e0e565b610a038185610e31565b935083602082028501610a1585610dfe565b8060005b85811015610a515784840389528151610a3285826109bc565b9450610a3d83610e24565b925060208a01995050600181019050610a19565b50829750879550505050505092915050565b6000610a6e82610e19565b610a788185610e4d565b9350610a88818560208601610f10565b610a9181611062565b840191505092915050565b6000610aa782610e19565b610ab18185610e5e565b9350610ac1818560208601610f10565b610aca81611062565b840191505092915050565b6000610ae2603483610e5e565b91507f547279696e6720746f207769746864726177206d6f7265206d6f6e657920746860008301527f616e2074686520636f6e7472616374206861732e0000000000000000000000006020830152604082019050919050565b6000610b48602783610e5e565b91507f4661696c656420746f207769746864726177206d6f6e65792066726f6d20636f60008301527f6e74726163742e000000000000000000000000000000000000000000000000006020830152604082019050919050565b6000610bae600083610e42565b9150600082019050919050565b6000610bc8600883610e5e565b91507f576169742031356d0000000000000000000000000000000000000000000000006000830152602082019050919050565b6000606083016000830151610c1360008601826109d0565b5060208301518482036020860152610c2b8282610a63565b9150506040830151610c406040860182610c4b565b508091505092915050565b610c5481610ef7565b82525050565b610c6381610ef7565b82525050565b6000610c7482610ba1565b9150819050919050565b60006020820190508181036000830152610c9881846109ee565b905092915050565b60006020820190508181036000830152610cba8184610a9c565b905092915050565b60006040820190508181036000830152610cdc8185610a9c565b9050610ceb60208301846109df565b9392505050565b60006040820190508181036000830152610d0c8185610a9c565b9050610d1b6020830184610c5a565b9392505050565b60006020820190508181036000830152610d3b81610ad5565b9050919050565b60006020820190508181036000830152610d5b81610b3b565b9050919050565b60006020820190508181036000830152610d7b81610bbb565b9050919050565b6000602082019050610d976000830184610c5a565b92915050565b6000604051905081810181811067ffffffffffffffff82111715610dc457610dc3611033565b5b8060405250919050565b600067ffffffffffffffff821115610de957610de8611033565b5b601f19601f8301169050602081019050919050565b6000819050602082019050919050565b600081519050919050565b600081519050919050565b6000602082019050919050565b600082825260208201905092915050565b600081905092915050565b600082825260208201905092915050565b600082825260208201905092915050565b6000610e7a82610ef7565b9150610e8583610ef7565b9250827fffffffffffffffffffffffffffffffffffffffffffffffffffffffffffffffff03821115610eba57610eb9610fa6565b5b828201905092915050565b6000610ed082610ed7565b9050919050565b600073ffffffffffffffffffffffffffffffffffffffff82169050919050565b6000819050919050565b82818337600083830152505050565b60005b83811015610f2e578082015181840152602081019050610f13565b83811115610f3d576000848401525b50505050565b60006002820490506001821680610f5b57607f821691505b60208210811415610f6f57610f6e611004565b5b50919050565b6000610f8082610ef7565b9150610f8b83610ef7565b925082610f9b57610f9a610fd5565b5b828206905092915050565b7f4e487b7100000000000000000000000000000000000000000000000000000000600052601160045260246000fd5b7f4e487b7100000000000000000000000000000000000000000000000000000000600052601260045260246000fd5b7f4e487b7100000000000000000000000000000000000000000000000000000000600052602260045260246000fd5b7f4e487b7100000000000000000000000000000000000000000000000000000000600052604160045260246000fd5b6000601f19601f8301169050919050565b61107c81610ec5565b811461108757600080fd5b5056fea2646970667358221220d0e80616677d7ff65c94192a11484e0c560362ffcb4df2d630748a2a1ba5f4d664736f6c63430008000033596f20796f2c204920616d206120636f6e747261637420616e64204920616d20736d617274",
  "linkReferences": {},
  "deployedLinkReferences": {}
}